:100000000040002029040000690400006B04000087
:1000100000000000000000000000000000000000E0
:100020000000000000000000000000006D0400005F
:1000300000000000000000006F04000071040000D8
:1000400073040000730400007304000073040000D4
:10005000730400000000000073040000730400003B
:1000600073040000730400007304000073040000B4
:1000700073040000730400007304000073040000A4
:100080007304000073040000730400007304000094
:100090007304000073040000730400007304000084
:1000A0007304000073040000000000000000000062
:1000B0000000000000000000000000000000000040
:1000C00010B5064C2378002B07D1054B002B02D02E
:1000D000044800E000BF0123237010BD3804002055
:1000E00000000000B4070000084B10B5002B03D03F
:1000F0000749084800E000BF07480368002B00D10B
:1001000010BD064B002BFBD09847F9E7000000001C
:100110003C040020B407000034040020000000006C
:10012000164B002B00D1144B9D46402292029A1A86
:10013000924600218B460F461348144A121A00F0CB
:10014000CDF90F4B002B00D098470E4B002B00D061
:1001500098470020002104000D000D48002802D01F
:100160000C4800F08BFA00F095F92000290000F00F
:1001700013F800F07FF9C04600000800004000209E
:10018000000000000000000038040020540400209B
:100190007D0600008D06000080B584B000AF04230A
:1001A000FB6015E0A023DA050121FB6899400B00F4
:1001B0001900A323DB00D150A023DB050121FA683D
:1001C00091400A0011002B4A9950FB680133FB60F3
:1001D000FB680F2BE6DDA023DB05274A00219950A1
:1001E000A023DA05ED23DB000021D1500023BB6002
:1001F000A023DA05A223DB00D25880239B02134000
:100200005B0C11D10D237B600BE0A023DB050121EA
:100210007A6891400A001100164A99507B680133B0
:100220007B607B680F2BF0DDA023DA05A223DB00C7
:10023000D2588023DB0413409B0E12D10D233B6068
:100240000CE0A023DA0501213B6899400B0019005E
:10025000A123DB00D1503B6801333B603B680F2B8F
:10026000EFDD064BBB60BB68013BBB60BB68002B8E
:10027000F9D1BDE70C05000044070000102700007D
:1002800080B500AF00F036F8031E06D0134B144AB9
:100290001A60144B802212021A6000F06BF8031EE1
:1002A00005D08023DA05C123DB000121D15000F005
:1002B00087F8031E0ED00C4B1B68012B07D00A4B8E
:1002C0000A4A1A60C046084B1B68012BFBD1084B39
:1002D000C0221A60C046BD4680BDC046040500402D
:1002E000DFFF07C0186C004000EC0640759300006B
:1002F00014EC064080B500AF1A4B1B68FF22134078
:10030000012B2AD1184B1B680F22134025D1174B04
:100310001B68F022134006D1154B1B68F0221340D6
:1003200001D101231AE0114B1B68F0221340102B5E
:1003300006D10F4B1B68F022134001D101230DE0C1
:100340000A4B1B68F0221340302B06D1084B1B6868
:10035000F022134001D1012300E000231800BD4624
:1003600080BDC046E00F00F0E40F00F0E80F00F0A1
:10037000EC0F00F080B500AF0D4B1B68FF2213405F
:10038000012B11D10B4B1B680F2213400CD10A4BD0
:100390001B68F0221340402B06D1084B1B68F0224B
:1003A000134001D1012300E000231800BD4680BDA9
:1003B000E00F00F0E40F00F0E80F00F0EC0F00F0A9
:1003C00080B500AF144B1B68FF221340012B1ED1D8
:1003D000124B1B680F22134019D1114B1B68F022DE
:1003E0001340A02B06D10F4B1B68F022134001D104
:1003F00001230DE00A4B1B68F0221340D02B06D1DD
:10040000084B1B68F022134001D1012300E00023B8
:100410001800BD4680BDC046E00F00F0E40F00F0BC
:10042000E80F00F0EC0F00F003210A4802680A43CD
:100430000260094802680A4302600849084A094BF9
:100440009B1A03DD043BC858D050FBDCFFF718FFB4
:10045000FFF766FE2405004054050040C007000079
:100460000000002038040020FEE7FEE7FEE7FEE77C
:10047000FEE7FEE710B50021040000F081F8044B10
:100480001868C36B002B00D09847200000F082F959
:10049000B007000070B50D4E0D4D0024AD1BAD1022
:1004A00005D0A300F35801349847A542F9D100F0D4
:1004B00073F9084E084D0024AD1BAD1005D0A30004
:1004C000F35801349847A542F9D170BD28040020A3
:1004D00028040020280400203004002070B5830781
:1004E0003FD0541E002A3BD0CEB20300032503E0C8
:1004F000621E002C34D0140001335A1E16702B4299
:10050000F6D1032C24D9FF250D402A0215432A04D5
:1005100015430F2C11D92600103E3609013636013D
:100520001A009B19156055609560D5601032934292
:10053000F8D10F221440032C0AD9261FB608013621
:10054000B6001A009B1920C29342FCD1032214402A
:10055000002C05D0C9B21C19197001339C42FBD183
:1005600070BD14000300CCE7034B10B5002B02D084
:10057000024800F083F810BD000000008D06000066
:10058000F0B55F4656464D464446F0B40F00394B31
:1005900085B01B68019002934933FF330393A42273
:1005A000029B52009E58002E4ED0039B9946C423B6
:1005B0005B00984604339A467468B044A5007519E8
:1005C000B244013C08D52DE06B1DFF331B689F42F0
:1005D00004D0043D013C25D3002FF5D173686A682F
:1005E000013BA34239D000236B60002AF1D073682D
:1005F00041469B460123A340096819422BD051462E
:10060000096819422BD12B0084331968019890474F
:1006100073685B45C3D14B461B68B342BFD1043DF1
:10062000013CD9D2144B002B0ED07368002B1BD188
:100630003368002B1CD04A463000136000E000BF36
:100640004B461E68002EB2D105B03CBC9046994680
:10065000A246AB46F0BD9047DAE77460C5E72B00D1
:10066000843318689047D3E73368B1461E00E9E742
:100670000023FAE7B00700000000000010B50100F9
:1006800000230022002000F01BF810BD70B5094BBC
:10069000094CE41AA41009D0084AA518AD00ED18B9
:1006A0002B68013C9847043D002CF9D100F07AF802
:1006B00070BDC0463004002034040020FFFFFF3F1F
:1006C000F8B544465F4656464D469B462F4BF0B420
:1006D0001C68A4235B000500E0580E00904600282B
:1006E0004BD043681F2B0DDC5C1C002D21D1023345
:1006F0009B0044601E5000203CBC90469946A24698
:10070000AB46F8BD224B002B3CD0C820400000E097
:1007100000BF002836D0A42200235200A158436015
:100720000160A05040328350043283500124002DD8
:10073000DDD09A0091468144424688214F467A5046
:10074000C42252009046804442468739994012683C
:100750008A460A43944642466146116084224946CD
:100760005F4652008F50022DC1D1020055468D3296
:10077000FF3211680D431560B9E720004D30FF309E
:10078000E050AEE701204042B6E7C046B0070000A7
:1007900000000000FEE7C046F8B5C046F8BC08BC43
:1007A0009E467047F8B5C046F8BC08BC9E467047E8
:0807B000000000200000000021
:0807B80068F9FF7F0100000059
:1007C00000000000EC02002054030020BC030020C5
:1007D0000000000000000000000000000000000019
:1007E0000000000000000000000000000000000009
:1007F00000000000000000000000000000000000F9
:1008000000000000000000000000000000000000E8
:1008100000000000000000000000000000000000D8
:1008200000000000000000000000000000000000C8
:1008300000000000000000000000000000000000B8
:1008400000000000000000000000000000000000A8
:100850000000000000000000000000000000000098
:100860000000000000000000010000000000000087
:100870000E33CDAB34126DE6ECDE05000B0000004C
:100880000000000000000000000000000000000068
:100890000000000000000000000000000000000058
:1008A0000000000000000000000000000000000048
:1008B0000000000000000000000000000000000038
:100BE000000000000000000069050000E9000000AE
:080BF000C1000000000000003C
:0400000300000429CC
:00000001FF
