:1000000000400020F505000035060000370600001E
:1000100000000000000000000000000000000000E0
:100020000000000000000000000000003906000091
:1000300000000000000000003B0600003D0600003C
:100040003F0600003F0600003F0600003F0600009C
:100050003F060000000000003F0600003F060000D1
:100060003F0600003F0600003F0600003F0600007C
:100070003F0600003F0600003F0600003F0600006C
:100080003F0600003F0600003F0600003F0600005C
:100090003F0600003F0600003F0600003F0600004C
:1000A0003F0600003F0600000000000000000000C6
:1000B0000000000000000000000000000000000040
:1000C00010B5064C2378002B07D1054B002B02D02E
:1000D000044800E000BF0123237010BDB8090020D0
:1000E00000000000B0390000084B10B5002B03D011
:1000F0000749084800E000BF07480368002B00D10B
:1001000010BD064B002BFBD09847F9E7000000001C
:10011000BC090020B0390000B40900200000000034
:10012000164B002B00D1144B9D46402292029A1A86
:10013000924600218B460F461348144A121A00F0CB
:10014000C5FA0F4B002B00D098470E4B002B00D068
:1001500098470020002104000D000D48002802D01F
:100160000C4801F075FB00F07BFA2000290000F03C
:1001700013F800F065FAC0460000080000400020B7
:100180000000000000000000B8090020100A002054
:1001900051180000F51A000090B587B000AF042395
:1001A0007B6115E0A023DA0501217B6999400B00F2
:1001B0001900A323DB00D150A023DB0501217A69BC
:1001C00091400A001100494A99507B6901337B61D3
:1001D0007B690F2BE6DDA023DB05454A0021995002
:1001E000A023DA05ED23DB000021D150414B122181
:1001F000180000F059FA00233B61FC1C00F002F9E2
:1002000003002370FB1C1B78002B22D00D23FB6006
:100210001CE0A023DB05384A9B58002B0AD0A02302
:10022000DA050121FB6899400B001900A123DB00CE
:10023000D15008E0A023DB050121FA6891400A00B3
:1002400011002A4A9950FB680133FB60FB680F2BB1
:10025000DFDDA023DA05A223DB00D25880239B0236
:1002600013405B0C16D10D23BB600BE0A023DB0514
:100270000121BA6891400A0011001C4A9950BB68DC
:100280000133BB60BB680F2BF0DD00F059F8412053
:1002900000F092F8A023DA05A223DB00D2588023D5
:1002A000DB0413409B0E17D10D237B600CE0A023D1
:1002B000DA0501217B6899400B001900A123DB00BE
:1002C000D1507B6801337B607B680F2BEFDD00F042
:1002D00037F8422000F070F8084B3B613B69013B66
:1002E0003B613B69002BF9D187E7C0460C05000054
:1002F00044070000C8360000040500001027000075
:1003000080B586B000AFF860B9607A60BB687B6189
:1003100000233B610AE07B691B78180000F04CF871
:100320007B6901337B613B6901333B613A697B68DF
:100330009A42F0D37B681800BD4606B080BDC04627
:1003400080B500AFA023DA05EC23DB000121D150FA
:10035000A023DB05124A00219950124A124B1821A2
:10036000D150104A114B1921D1500E49A123DB0065
:1003700001225242CA500B49A223DB000122524201
:10038000CA50084A0A4B0B49D150064AA023DB0049
:100390000421D150034B01221A60C046BD4680BDE6
:1003A00064070000002000400C0500001405000058
:1003B000240500000050270080B582B000AF020085
:1003C000FB1D1A700D4B01229A600C49FB1D1B7816
:1003D0000B4A8B50C046094A8E235B00D358002B32
:1003E000F9D0064A8E235B000021D150034B012235
:1003F000DA60C046BD4602B080BDC0460020004065
:100400001C05000080B582B000AF0F4A84235B005A
:100410000021D1500C4B01221A600B4AA323DB00B0
:10042000D258FB1D1A70084B01225A60064A8423D9
:100430005B00D358002B02D0FB1D1B7800E000238B
:100440001800BD4602B080BD0020004080B500AF5E
:1004500000F036F8031E06D0134B144A1A60144BF2
:10046000802212021A6000F06BF8031E05D0802370
:10047000DA05C123DB000121D15000F087F8031E0B
:100480000ED00C4B1B68012B07D00A4B0A4A1A608E
:10049000C046084B1B68012BFBD1084BC0221A60D9
:1004A000C046BD4680BDC04604050040DFFF07C012
:1004B000186C004000EC06407593000014EC0640F8
:1004C00080B500AF1A4B1B68FF221340012B2AD1C5
:1004D000184B1B680F22134025D1174B1B68F022C5
:1004E000134006D1154B1B68F022134001D10123A4
:1004F0001AE0114B1B68F0221340102B06D10F4B52
:100500001B68F022134001D101230DE00A4B1B6848
:10051000F0221340302B06D1084B1B68F022134009
:1005200001D1012300E000231800BD4680BDC04674
:10053000E00F00F0E40F00F0E80F00F0EC0F00F027
:1005400080B500AF0D4B1B68FF221340012B11D16A
:100550000B4B1B680F2213400CD10A4B1B68F02277
:100560001340402B06D1084B1B68F022134001D1E9
:10057000012300E000231800BD4680BDE00F00F01D
:10058000E40F00F0E80F00F0EC0F00F080B500AFD2
:10059000144B1B68FF221340012B1ED1124B1B680A
:1005A0000F22134019D1114B1B68F0221340A02BCE
:1005B00006D10F4B1B68F022134001D101230DE03F
:1005C0000A4B1B68F0221340D02B06D1084B1B6846
:1005D000F022134001D1012300E000231800BD46A2
:1005E00080BDC046E00F00F0E40F00F0E80F00F01F
:1005F000EC0F00F003210A4802680A430260094830
:1006000002680A4302600849084A094B9B1A03DD45
:10061000043BC858D050FBDCFFF718FFFFF780FD04
:100620002405004054050040BC39000000000020B3
:10063000B8090020FEE7FEE7FEE7FEE7FEE7FEE77B
:1006400010B50021040001F085F8044B1868C36B55
:10065000002B00D09847200003F028F8E436000073
:1006600070B50D4E0D4D0024AD1BAD1005D0A3008F
:10067000F35801349847A542F9D103F019F8084E10
:10068000084D0024AD1BAD1005D0A300F358013474
:100690009847A542F9D170BDA8090020A8090020FB
:1006A000A8090020B00900200FB400B5064983B0A6
:1006B00004AB086804CB8168019300F089F803B0AB
:1006C00008BC04B01847C0462804002070B5830752
:1006D0003FD0541E002A3BD0CEB20300032503E0D6
:1006E000621E002C34D0140001335A1E16702B42A7
:1006F000F6D1032C24D9FF250D402A0215432A04E4
:1007000015430F2C11D92600103E3609013636014B
:100710001A009B19156055609560D56010329342A0
:10072000F8D10F221440032C0AD9261FB60801362F
:10073000B6001A009B1920C29342FCD10322144038
:10074000002C05D0C9B21C19197001339C42FBD191
:1007500070BD14000300CCE7F0B557464E46454641
:100760004B6EE0B480460F0091469B042DD5136874
:100770009A469368002B26D0524652680025960868
:100780005246146804D115E001350434AE420FD04E
:100790003A002168404601F013FA431CF4D14A465E
:1007A0000023936053601CBC90469946A246F0BD5E
:1007B0004B469B684A46B6009B1B936008229446B2
:1007C000E244002BD8D10020E9E701F03BFBE6E74B
:1007D000F0B55F46564644464D46F0B4AFB004907F
:1007E0008A4693461C000A93002804D0836B019329
:1007F000002B00D18FE0534680210C229A5E8901A4
:1008000093B20B4209D10A43534651469A81496E2D
:10081000CA4B0B4051464B6693B21A075BD5524602
:100820001269002A57D01A2213400A2B61D01EAB3E
:100830009846119300235D464746D346139312937F
:1008400005932B782C00002B1BD0252B02D118E010
:10085000252B03D001342378002BF9D1661B10D04F
:10086000139B3D60F218129B7E600193013313923B
:1008700012930837072B27DC059B9C46B44463463C
:1008800005932378002B01D100F011FE00230EAA5E
:10089000D371012252420392002209920192403206
:1008A0009246403291467F3A651C637800200026CC
:1008B0002024944601351A00203A582A00D99BE397
:1008C0009F4992008A589746002A01D000F0F8FC10
:1008D00012924746D0E75146049800F0C5FE002822
:1008E00001D000F0A5FD53461A229B8913400A2B24
:1008F0009DD153460E229B5E002B98DB23005A4667
:100900005146049800F076FE2FB03CBC90469946C4
:10091000A246AB46F0BD01F0E1F86CE7099B0A92F4
:100920005B4209930423019A1A4301922B78C1E791
:1009300030240A9B10AA1470181D48341B68547088
:10094000019E00220693002331000EACE271039A4F
:10095000079302331943002A01DA00F061FC802278
:10096000310091430A001A43069B01920A90002B22
:1009700001D000F0F8FC734B0293039B0024002B82
:1009800001D000F057FC0023464603930893039BD5
:10099000089902938B4200DA0291631E9C41029BEC
:1009A0009C46A444634602930223019A1A400B9288
:1009B00002D0029B023302938423019A1A400C92C4
:1009C00000D051E3099B029A9C1A002C00DC4BE3F7
:1009D0001398102C01DC00F095FD5B4B12999946A1
:1009E00010239A464B46A9461D0005E08A1C1900B3
:1009F0000837103C102C11DD534610307B604B1C27
:100A00003D6013901293072BF0DD002800D01FE308
:100A1000103C002101224746102CEDDC2B004D46F6
:100A200099464B4620183B607C6013901292072A2F
:100A300000DDCAE30EABDB790837511C002B00D078
:100A40001AE30B9B002B00D12BE310AB3B6002237E
:100A500002307B6013901291072901DC00F0DCFB6F
:100A6000002801D000F045FC0C9B012100224746E4
:100A7000802B00D019E3099B029C1C1B002C00DC7E
:100A800013E3102C01DC00F05EFD304B994610237F
:100A90009A464B46A9461D0005E0911C1A000837EE
:100AA000103C102C11DD534610307B60531C3D6010
:100AB00013901293072BF0DD002800D079E3103C4F
:100AC000012100224746102CEDDC2B008C464D46C0
:100AD00099464B463B60634600197C601390129325
:100AE000072B01DD00F012FC591C089C039B083702
:100AF00062461C1B002C00DDDDE2089B3E609C462C
:100B000060447B6013901291072900DC35E30028D4
:100B100000D0B4E3019B12905B073DD5099B029A7C
:100B20009E1A4346002E37DD102E01DC00F004FD36
:100B3000054A12999146102710E0C046FFDFFFFFDB
:100B4000E8360000703800008C3800004C38000097
:100B50008C1C11000833103E102E11DDD74A1030C6
:100B60001A604A1C5F6013901292072AF0DD002879
:100B700000D0EBE2103E012400214346102EEDDCB4
:100B80004A46801944C313901294072C00DCFFE2FC
:100B9000002801D000F052FC099B02998B4200DA38
:100BA0000B00059A94469C4463460593FCE24A4632
:100BB000019B134301932B787CE6002801D000F0C1
:100BC0000CFD1023019A1A430192019B9B0600D44D
:100BD00060E307230A9A07329A4301339C46944400
:100BE00063460A935368126807930692002B00DA53
:100BF000BFE30EABDC79039B002B00DA59E38023C3
:100C0000019A9A430192069A079B1100194300D159
:100C10000EE1079B002B01D100F06EFC4646A14679
:100C2000AA46069C079D200029000A22002302F004
:100C3000FDFB013E303232700023200029000A22E1
:100C400002F0F4FB030004000D000B43EBD143461C
:100C50009B1B0694079508934C46554697E600283B
:100C600001D000F0B6FC1023019A1A430192202310
:100C7000019A134000D1CEE107220A9B0733934328
:100C8000013294469C4462465C681B680693079454
:100C900000230A920EAAD371039B002B01DA00F005
:100CA000FCFB8023019A9A430192069A079B11004C
:100CB000194300D0CAE1039B0024002B01D100F0AE
:100CC00069FC0022002306920793069A079B46467A
:100CD0000720BA46A446A9465F07D5080100DC08EC
:100CE0002F4323003C001140013E303131703A0067
:100CF0001C43F1D106920793019A574664464D462C
:100D0000D20700D4A5E0302900D1A2E03023013E73
:100D1000337043469B1B089339E6002219001300E9
:100D200030399A000135D3186A1E12785B00CB184F
:100D3000110030390929F4D909931300BBE52B7848
:100D400001202B26B6E56B1C02932B782A2B01D1B0
:100D500000F00DFC190030390022029D09290DD840
:100D6000930001359A186B1E1B7852005218190017
:100D700030390929F4D9002A00DA88E303929AE588
:100D80000A9B1A1D1B680993002B00DAC6E52B7815
:100D90000A928FE5002800D169E70EABDE7166E7A5
:100DA0000A9B1A1D1E68002391460EAAD371002EBD
:100DB00000D1B1E3039B002B00DA8BE31A00002182
:100DC000300001F037FD002800D1C1E3831B0893F8
:100DD0000EABDC794B460A9300230393D7E500283A
:100DE00001D000F0F2FB2023019A134045D11022DC
:100DF00001990A4000D0BAE2402301990B400A99B8
:100E000000D025E30A000968043206910021079109
:100E10000EA9CB71039B002B00DA48E280230199D5
:100E20000A929943069B01910024002B00D0F0E622
:100E3000039B002B00D1A6E5002200230692079316
:100E40002722069B14A930338B540EAB3F269C46B9
:100E5000664443469B1B089399E5019B23430193FA
:100E60002B7827E5002800D0ACE31023019A1A4321
:100E700020230192019A1340B9D007220A9B07331D
:100E80009343013294469C4462465C681B68069317
:100E9000079400230A920EAAD371039B002B00DA59
:100EA00006E28023019A00249A430192069A079B46
:100EB0001100194300D0ACE6BAE7C0468C380000F8
:100EC000002800D093E3CB4A0292019A920649D5BA
:100ED000082107208C460A9A0732824394446146CF
:100EE0000A911168526806910792012201990A40FD
:100EF0004AD00699079A0800104300D01CE20EABB6
:100F0000D871039B002B00DA94E18023019A9A4365
:100F1000019232E50A9A14AE13680EA902936B4649
:100F20001B7A33700023CB71130004330A9301231F
:100F3000029308930023039336E52B78002E00D00C
:100F4000B8E401202036B5E46246019B13430193C7
:100F50002B78AFE4002800D046E3A74A0292019A1A
:100F60009206B5D4019AD20603D4019A520600D54E
:100F70008AE20A9A11680691002104320A9201223B
:100F8000079101990A40B4D10EABDA71039B002B93
:100F900000DA51E2802399430191069A079B1100E0
:100FA000194300D1E9E4002449E15246019B13436F
:100FB00001932B787EE42B786C2B00D183E21021F7
:100FC000019A0A43019275E4002800D0F7E2019BE0
:100FD0009B0600D406E20A99059A0B681A60D2179C
:100FE0005A600B0004330A93FFF72BFC002800D152
:100FF000EBE50EABDE71E8E5002800D0F1E2002B56
:1010000000D154E214AE337000230EAAD371013321
:10101000029308938EE7102201990A4000D1BCE1A7
:101020000A990A00096804320691002107910EA965
:10103000CB71039B002B00DA2EE2802301990A92E8
:101040009943069B0191002B00D134E600243CE635
:1010500011AA59460498FFF77FFB00286DD1129919
:1010600013984A1C4746C4E4129A1398511C0EABBD
:10107000DB79002B00D1E4E40EAB07333B600123A6
:1010800001307B6013901291072900DCAEE000284C
:1010900000D020E10B9B002B00D0B5E00022012105
:1010A00047460C9B802B00D1E5E4039B089C1C1B4E
:1010B000002C00DC21E5514B9946102C1FDD10233C
:1010C0009A464B46A9461D0005E0911C1A000837B8
:1010D000103C102C10DD534610307B60531C3D60DB
:1010E00013901293072BF0DD002813D1103C01213F
:1010F00000224746102CEEDC2B004D4699464B460D
:1011000000193B607C601390129107292ADC083794
:101110000131F2E411AA59460498FFF71DFB00289B
:101120000BD1129A1398511C4746D1E711AA594680
:101130000498FFF711FB002836D0DA4653469B8906
:101140005B0600D574E10598FFF7DEFB11AA59464E
:101150000498FFF701FB0028EFD1129913984C1C5B
:101160004346F8E4002800D0D7E0434608981E60C4
:10117000586001234746139012933B000833019AAD
:10118000520705D5099A0299561A002E00DDCBE4C4
:10119000099B02998B4200DA0B00059A94469C4405
:1011A000634605930028C1D1002347461293FFF7F9
:1011B00048FB11AA59460498FFF7CEFA0028BCD183
:1011C000129A1398511C47466AE4002800D022E185
:1011D0000EABDB79002B13D043460EAA07321A6000
:1011E0000123424601200121474653600A00083787
:1011F000013126E45C380000703800004C380000F3
:101200000B9B002B00D13BE1424610AB1360022345
:1012100001210220474653600A000837013140E7A8
:10122000D84B01910293069A079B11000A9019432B
:1012300000D0B8E600220023002406920793069A05
:10124000079B46460F20BA46A446A946029D0100C8
:101250001140695C1F071409013E274331701909C9
:101260000B0039003A001943F1D106920793434627
:101270009B1B574664464D460893FFF788FB11AA0F
:1012800059460498FFF768FA002800D055E71398EC
:10129000434674E7019BDB0600D49BE00A9A13687F
:1012A000029306930432DB1707930A929EE40A9294
:1012B0000024069A079B1100194300D0A9E4BBE55E
:1012C00011AA59460498FFF747FA002800D034E7DE
:1012D0004746FFF7D1FA11AA59460498FFF73CFA9E
:1012E000002800D029E7129A1398511C4746FFF7AF
:1012F000A8FB11AA59460498FFF72EFA002800D03F
:101300001BE7129A1398511C4746CAE6002800D0E2
:10131000E5E0012100224746C7E611AA5946049894
:10132000FFF71AFA002800D007E7129B13980393DF
:10133000591C4746FFF7E1FB302010AA107053708C
:1013400001990022022308000EACE271039A1843AF
:10135000002A00DADDE080220800904302001A43F0
:10136000019200246BE7874B0024029367E70A99F8
:1013700048E50699079A00244B4294410693079446
:101380002D230EAAD371039B002B00DAD1E080231A
:10139000019A2D249A4301923BE4402301990B408A
:1013A0000A9900D13DE60B0009880433069100211B
:1013B00007910EA9CA71039A002A00DAD5E08022AB
:1013C00001990A939143069A0191002A00D172E48F
:1013D00000247AE4019B0A9A5B0600D45FE70021AF
:1013E000535E5EE7019BDB060CD4019B5B0609D5CF
:1013F00069460A9B898A1A680433019211800A930C
:10140000FFF71FFA0A9A059913681960130004334D
:101410000A93FFF716FA11AA59460498FFF79CF9A8
:10142000002800D089E6129A1398511C47461EE600
:1014300001204042FFF768FA0A98F4E611AA5946DB
:101440000498FFF789F9002800D076E613989FE604
:101450000B00098804330691002107910EA9CA7177
:10146000039A002A00DA7DE0802201990A939143D1
:10147000069A01910024002A01D0FFF7CAFBD7E4A5
:1014800000220121474610E60A9A118873E50122DD
:1014900052420392FFF70FFA0A92069A079B110035
:1014A0000024194301D0FFF710FCFFF70AFC139B3F
:1014B000DA460193002B00D140E611AA5146049868
:1014C000FFF74AF93AE6019B0135234301932B7854
:1014D000FFF7F0F9300001F0D1FC089078E411AA90
:1014E00059460498FFF738F9002800D025E6129AEB
:1014F0001398511C4746D8E5069B092B01D9FFF7E5
:101500008DFB9DE4129B0D935A1C1F4B9946FFF7D0
:1015100088FA0024019092E6039A062A00D906224E
:10152000D343DB1708921A404B4602920A93174E98
:1015300000E52D24FFF76DFB129A0192541C124A0C
:101540009146FFF71DFB124B8C469946FFF7C1FAF7
:101550000EABDC794B460A93039B0893002303935D
:10156000FFF715FA0A930024A3E60A9395E70A9B6E
:101570001A1D1B680393002B19DB6B780A92029DDE
:10158000FFF798F9703800008C38000084380000AC
:101590004C380000019BDB0704D53021272314AA17
:1015A000D15452E4002346460893FFF7F0F90A921B
:1015B000012252426B780392029DFFF77BF90EAB3A
:1015C000DE7104E50EABDE714FE40EABDE71FFF7AA
:1015D0000AFC0EABDE71FFF746FB0EABDE71FFF7C8
:1015E000F0FA0EAAD6710AE50EAAD671B5E40EAAD3
:1015F000D67168E470B5060002201A4CA5440C00B0
:101600008989814368468181616E1991E189C1812F
:10161000E16930000791616A09911AA9009104916A
:101620008021C90002910591002106916946FFF7CA
:10163000CFF8051E05DB6946300000F0B9F9002837
:101640000CD16B469B895B0603D54023A2891343CB
:10165000A38128008D23DB009D4470BD01256D42D0
:10166000EFE7C04698FBFFFF334B70B505001868E5
:101670000C00002802D0836B002B3DD00C23E05ED1
:1016800083B21A070DD52169002916D0DA0722D5B1
:101690000023A360636900205B42A361002922D07C
:1016A00070BDDA0640D55B0729D421690822030002
:1016B0001343A3819BB20029E8D1A022802092008D
:1016C00080001A408242E1D02100280000F0AEFDE7
:1016D000A3892169DAE700229B0700D46269A2602E
:1016E00000200029DCD10C22A35E1A06D8D54022A6
:1016F0001343A3810138D3E700F0F0F9BEE7216B73
:1017000000290AD023004033994204D0280000F079
:10171000B7FA0C23E05E00232363242398430023BD
:10172000216963602160C1E709232B6040230343E3
:101730000120A3814042B3E728040020034B10B5E9
:10174000002B02D0024800F083F810BD000000001A
:10175000F51A0000F0B55F4656464D464446F0B4D3
:101760000F00394B85B01B68019002934933FF335A
:101770000393A422029B52009E58002E4ED0039B3E
:101780009946C4235B00984604339A467468B04473
:10179000A5007519B244013C08D52DE06B1DFF333F
:1017A0001B689F4204D0043D013C25D3002FF5D196
:1017B00073686A68013BA34239D000236B60002A3A
:1017C000F1D0736841469B460123A3400968194242
:1017D0002BD05146096819422BD12B00843319684C
:1017E0000198904773685B45C3D14B461B68B34271
:1017F000BFD1043D013CD9D2144B002B0ED07368ED
:10180000002B1BD13368002B1CD04A4630001360DC
:1018100000E000BF4B461E68002EB2D105B03CBCB4
:1018200090469946A246AB46F0BD9047DAE7746011
:10183000C5E72B00843318689047D3E73368B14677
:101840001E00E9E70023FAE7E4360000000000008C
:1018500010B5010000230022002001F0EBFB10BDB9
:10186000F0B5474680B40C228B5E80469AB20C00DD
:10187000110740D48022120113436268A381002A19
:1018800000DC70E0A66A002E31D042464146156861
:1018900000229BB20A60DA0400D469E0226D5B0783
:1018A00006D56368D21A236B002B01D0E36BD21AE2
:1018B0000023E1694046B047431C3DD0A2893A4B22
:1018C00013400022626022691BB2A3812260DB0404
:1018D00047D44346216B1D60002908D023004033C4
:1018E000994202D0404600F0CBF900232363002048
:1018F00004BC9046F0BD2669002EF8D0236826600F
:101900009D1B0023920700D16369A360002D04DCB6
:10191000EDE736182D1A002DE9DD2B003200E169C4
:101920004046676AB8470028F3DC40230120A289BB
:1019300040421343A381DBE7434619681D29F4D8CD
:101940001A4B0122CB409A43EFD1A689164B626015
:10195000334022691BB2A3812260DB04B9D5002980
:10196000B7D12065B5E7E26B002A00DD8AE7BEE764
:1019700000220123E1694046B0470200431C02D027
:10198000A389A66A8BE743461B68002BF8D01D2B62
:1019900001D0162B03D1434600201D60A8E7402349
:1019A000A1890B43A381A3E7FFF7FFFF01004020BC
:1019B00070B504000D00002802D0836B002B09D005
:1019C0000C22AB5E0020002B03D029002000FFF783
:1019D00047FF70BD00F082F8F2E7C04610B502493B
:1019E00000F0BEFB10BDC0462D310000F8B55F46CB
:1019F00056464D464446344BF0B4C363B8230024E6
:101A000003229B00C45004334568C2500833C218F7
:101A1000043BC2500600042328002C606C60AC60BC
:101A2000AB816C66EC812C616C61AC610822002199
:101A30005C30FEF74BFE254B254F9A462B62254B1B
:101A4000EF6299466B62244BED61AB62B5689846D4
:101A500009232800AB81083B2C606C60AC606C668D
:101A6000EB812C616C61AC61082200215C309B46EB
:101A7000FEF72CFE53462B624B466B624346EF62E9
:101A8000AB62ED61F56812232800AB81103BEB815E
:101A90002C606C60AC606C662C616C61AC6108227F
:101AA00000215C30FEF712FE53462B624B466B6200
:101AB0004346AB625B46EF62ED61B3633CBC90466C
:101AC0009946A246AB46F8BDDD190000E12D0000A5
:101AD000712E0000092E0000452E0000836B10B50A
:101AE000002B01D1FFF782FF10BDC0467047C046F2
:101AF0007047C04670B5094B094CE41AA41009D0D0
:101B0000084AA518AD00ED182B68013C9847043D24
:101B1000002CF9D101F0D2FD70BDC046B009002003
:101B2000B4090020FFFFFF3FF0B54F464646C0B462
:101B300085B080468946140000F038FB012831D07A
:101B4000230003AF5C334A463900404601F026FAD1
:101B50000600431C21D0002830D03978002507E04A
:101B600023685A1C226019700135B54226D2795D6E
:101B7000A368013BA360002BF2DAA269934201DB68
:101B80000A29EDD12200404601F0ACF9431CEBD10B
:101B900005B00CBC90469946F0BD4023A289134382
:101BA000A381F5E74B46013BFE2BC9D86A464B465D
:101BB000D371D17903AF39700126CFE74846E7E703
:101BC00010B50C24135F8024A401234204D12343C5
:101BD0009381536E1C435466FFF7A6FF10BDC046A9
:101BE000F8B50C00060000F0F7FE204FBB685D68FA
:101BF00003239D431E4B2C1B9C466444240B1D4B0E
:101C0000013C24039C4207DD0021300001F0D6F89E
:101C1000BB685B19984204D0300000F0DFFE002062
:101C2000F8BD6142300001F0C9F8431C0DD001231A
:101C30002D1BBA681D43104B55601A683000141BE9
:101C40001C6000F0CBFE0120EAE70021300001F02B
:101C5000B5F8BB68C21A0F2ADEDD08490968401AC8
:101C60000549086001210A435A60D5E7980500201C
:101C7000EF0F0000FF0F0000E0090020A409002082
:101C8000F0B54746050080B40C1E3ED000F0A4FE1F
:101C900001232100984608394E684246330003204C
:101CA0009343CC186268824360488768BC425AD02C
:101CB0004746626037420BD10827BC460E68844411
:101CC000891B9B198E68664566D0CF68F760BE6039
:101CD0000126A7187F68374236D0554A1E434E600A
:101CE000CB50934214D8DB08FF3A9C10FF3AA24035
:101CF0004468DB002243426018188368C8608B6028
:101D00008160D960280000F069FE04BC9046F0BDF7
:101D10005A0A042A4FD89C09260039343836640000
:101D2000A4000419083CA268032794424AD05068D2
:101D3000B843834202D292689442F8D1D468CC600E
:101D40008A60A160D160DDE79B183A4FA268BA4271
:101D500040D0E4681E43D460A260354A4E60CB5048
:101D60009342D5D8BFE79B184246324206D10A6853
:101D7000891A8C689B18CA68E260946001242E4A14
:101D80001C4312684C6081609342BBD32B4B2800EC
:101D90001968FFF725FFB5E74646A01840683042AE
:101DA0003ED1A068D318E268C260906042461A43F0
:101DB0004A60CB50A6E7142A14D816005C325B3672
:101DC0005400ADE70123B610B340426813434360AB
:101DD0002200B4E71E43D1609160CA608A604E6001
:101DE000CB508FE7542A05D81C0B26006F346E3673
:101DF000640095E7AA246400A24205D8DC0B260003
:101E00007834773664008BE70D4CA24205D89C0CE1
:101E100026007D347C36640082E7FE247E267FE740
:101E200042461A434A60CB506CE7C04698050020F2
:101E3000FF010000A0050020A0090020DC0900200F
:101E400054050000F0B5564644465F464D46F0B492
:101E5000936885B001900C009246002B25D08B89A9
:101E60001A072AD50A69002A27D0524612689346D3
:101E70009A072FD5B74B002600259846002D00D194
:101E80006DE02B00454500D9B24B3200E169019865
:101E9000676AB847002800DC79E053469B6836182B
:101EA0002D1A181A53469860E8D1002005B03CBCA2
:101EB00090469946A246AB46F0BD21000198FFF737
:101EC000D3FB002800D03BE15246A3891268934619
:101ED0009A07CFD4DA0762D50023002799461D0060
:101EE0000293002F30D0029B002B00D1C3E02E00C4
:101EF000BD4200D93E0020682269B0466369904225
:101F000007D9A26894469C4462460392664500DD68
:101F1000EFE09E4200DA92E04A46E1690198666A83
:101F2000B0478046002832DD4346ED1A00D195E0E7
:101F30004346FF1A534642469B68C1449B1A524689
:101F40009360B2D0002FCED15B461B6899465B46AA
:101F50005F6808239C460023E3440293C1E75B4685
:101F60001E685D6808239C46E34487E77A4B30008F
:101F70009E4200D91800414601F06CF943463A00F0
:101F80004343E1690198656AA847002823DC0C23D4
:101F9000E25E402301201343A381404286E70027ED
:101FA0000026002E23D080229200A568134225D05F
:101FB000A846AE425BD39022D200134268D120687B
:101FC0004246390000F0BCFC3000A3685D1B23686A
:101FD000A5604344236053469B683F18361A181A7D
:101FE0005346986000D160E7A389002EDBD15A46A2
:101FF0001768566808229446E344D2E720682369AC
:10200000984203D8636998469E42AFD2B54200D940
:1020100035002A00390000F093FCA36822685B1B9E
:102020005219A3602260002B01D02800D3E72100C1
:102030000198FFF7BDFC0028A9D12800CBE73200AA
:10204000494600F07DFCA3689B1BA36023689C4667
:10205000434666442660ED1A00D069E721000198E6
:10206000FFF7A6FC002892D10023029360E7350019
:102070002068B046A4E73A000A21484600F0DAFB9F
:10208000002859D04B460130C51A012302932EE790
:1020900021692268521A9146626950008218D00F55
:1020A0008218521090464A46501C801942464045BC
:1020B00001D9804602005B052DD51100019800F082
:1020C000F9F8051E3FD04A46216900F0FBFBA289C2
:1020D000224B134080221343A381434628004A46E3
:1020E000484463619B1A256120603500A360B046B7
:1020F00066E76646494600F023FCB44623682100A3
:10210000634423600198FFF753FC002800D03EE7AA
:10211000039B984608E7019800F062FC051EDCD19D
:10212000019D21692800FFF7ABFD8022A38993431D
:102130001AB20C232B602CE701237D1C0293D6E6F8
:1021400001204042B2E60C23019A13600C23E25EA8
:102150001FE7C04600FCFF7FFFFFFF7F7FFBFFFF05
:10216000F8B54F464646C0B4B8278046BF0047443E
:1021700089460026002F14D07B68BC685D1E0DD4F4
:10218000A389012B07D90E22A35E013303D02100BE
:102190004046C84706436834013DF1D23F68002FEE
:1021A000EAD130000CBC90469946F8BD054B1B683F
:1021B0005B6B002B03D094225200985C7047024B5B
:1021C000F9E7C046280400202C04002070B50C005C
:1021D0001E000E23C95E90B01500002915DB01AA70
:1021E00000F0EAFF002810DBF023029A1B021340E4
:1021F0000D4A8020944663445A4253413360802301
:10220000DB002B60000110B070BD00233360A38998
:102210001B0603D5402300202B60F4E78023DB005E
:102220002B600020EFE7C04600E0FFFF70B58B8910
:1022300082B005000C009B0707D5230043332360C1
:1022400023610123636102B070BD01AB6A46FFF7F1
:10225000BDFF00990600280000F02CF800281CD0D3
:102260008022134BEB63A38920601343009A1BB2B7
:102270006261019AA3812061002A02D13343A381C4
:10228000E1E70E23E15E280000F0AAFF00280CD051
:102290000122A3891A4313B2F0E70C22A35E9A0528
:1022A000D1D402221343A381C7E70C22A35EE5E742
:1022B000DD190000F0B55F464D4656464446F0B481
:1022C0000D000B3583B00700162D00D8A8E00723BA
:1022D0009D4300D5CEE0A94200D9CBE000F07CFBC5
:1022E000F823FF339D4200D884E26B0A00D1C5E099
:1022F000042B00D96CE13823A9099C460133984688
:10230000884443468C445900C94E890071180839E5
:10231000CC68A14217D0032362689A431300521B72
:102320000F2A00DDB0E00320002A09DB8DE063689E
:1023300083435A1B0F2A00DDA6E0002A00DB84E05D
:10234000E468A142F3D14346009332003469083275
:10235000944200D18FE10323616899430B00481B2D
:102360000F2800DD76E172613261002871DAB14A2E
:10237000914200D934E10123C80882109340726869
:102380001A43C3009B1998687260E360A0609C6068
:102390001300C460012000998A109040984200D92F
:1023A00075E003420CD1032291430A1D40000092C4
:1023B000034205D1009A4000043200920342F9D052
:1023C00003239846009AD3009946B144CC469246DE
:1023D0006346DC68A44507D14FE1002A00DB5FE1DA
:1023E000E468A44500D148E14246636893435A1B20
:1023F0000F2AF2DD012163190D436560E068A568CD
:102400000836E86011438560F360B3603800DE6031
:102410009E6059609A5000F0E1FA2000083022E0F6
:10242000102927D8380000F0D7FA102506230221FA
:102430007F4E9B00F3181A005C68083A944200D162
:1024400027E1032362689A431300E268A168CA6027
:1024500091600122E318596838000A435A6000F07D
:10246000BDFA2000083003B03CBC90469946A24615
:10247000AB46F0BD0C2300203B60F4E740239846B8
:10248000013B80219C463FE7634600935DE70323C1
:10249000B46862689A439046AA4203D3521B0F2A3B
:1024A00000DD87E023004344634A0193634B934676
:1024B0001B681268EB18013200D157E1604A94465C
:1024C00063441B0B1B0300930099380000F076FC5B
:1024D00003008146013361D0019B834200D9FDE0B6
:1024E000584B009A9A461B689C46534662441A60B1
:1024F000019B11004B4500D143E15B461B68013352
:1025000000D14FE14B46019A9B1A59185346196066
:1025100007234A46134000D117E1082189464A495A
:10252000D21A9144C91A009B38004B441B051B0D5D
:10253000CB1A19009B4600F041FC431C00D135E149
:102540004B46C01A01235844184353461B685B444A
:102550001900534619604B46B3605860B44213D01B
:1025600043460F2B00D8E1E04346072260680C3B4E
:102570009343063A024005201A436260E218506015
:1025800090600F2B00D915E1304B1A68914200D9A9
:1025900019602F4B1A68914200D919600323B4685F
:1025A00062689A431300521B9D4200D9C1E00F2A72
:1025B00000DCBEE001232900651919431343616063
:1025C0003800B5606B6000F009FA200008304AE777
:1025D000142B74D9542B00D9B0E0290B6E238CE650
:1025E0004A0A042A74D9142A00D9C2E010005C32C5
:1025F0005B305200082149428C469200B218944444
:10260000624692680B318846944500D1A0E041466D
:1026100050688843834202D292689445F7D1D368C8
:102620009C4673686146A260E1608C60D460B1E64C
:1026300098050020FF010000A4090020DC0900200B
:102640000F100000E009002008100000D809002049
:10265000D4090020012163190D43014365607361B2
:102660003361DA609A6059601850380000F0B6F9AA
:1026700020000830F7E673688CE608239B46073B8A
:10268000DC449B46DA4443465246134200D09FE660
:1026900033E0DC688A1C0092A34200D155E6D0E604
:1026A0000122E318596838000A435A60E368A268B7
:1026B000D3609A6000F092F920000830D3E65B22E4
:1026C00094460132904698449C44434659001BE688
:1026D0008A0910003932383052008BE7B44200D0FA
:1026E0005CE7FDE6009B013B009308235B429C46B0
:1026F000E1444B469B6899457AD14346009A134280
:10270000F0D17368834373604000984200D9BEE6FD
:10271000002800D1BBE6034270D152460092009AD5
:102720004000043200920342F9D04BE601234A46AE
:102730005360380000F052F9002094E6AA225200BB
:1027400093420DD8E90B7723D7E580214901EAE6CA
:10275000012380108340726813437360624661E70F
:10276000284A934218D8A90C7C23C6E5103300935D
:10277000AAE6542A26D80A0B10006F326E30520097
:1027800038E71B0500D0B8E6009BB2684344180048
:10279000012303435360F7E67F239846013BFE2164
:1027A0009C46B1E55B464A461A60B1E6002301202B
:1027B0009B46CAE6210038000831FFF761FA53460C
:1027C0001968E1E6AA204000824205D8CA0B100031
:1027D0007832773052000DE70A48824205D88A0CD9
:1027E00010007D327C30520004E7FE227E2001E79B
:1027F000736889E7E9084B1C5B0019E653460093B0
:10280000E0E5C0465405000082B000290AD0002A45
:102810000BD0002B0BD013780B601078431E98411F
:1028200002B0704701A9002AF3D10020F8E7022086
:102830004042F5E770B5CDB283073CD0531E002A65
:102840001FD00278AA421DD0032405E0002B18D027
:102850000278013BAA4215D001302042F6D1032B69
:1028600011D8002B0DD00278AA420BD0421CC01800
:1028700004E00132511E0978A9421AD01300904297
:10288000F7D1002070BDFF220C0212022240FF246B
:10289000214011430C04094E0C4302680849624070
:1028A000511891433142DED1043B0430032BF4D85C
:1028B000D7E71800E6E71300D1E7C04680808080A4
:1028C000FFFEFEFE70B50F2A32D90C0004430B0048
:1028D000A40731D115000400103D2D0901352D014B
:1028E00049191E6826605E6866609E68A660DE689C
:1028F0001033E66010349942F3D10F234519134089
:10290000032B1BD91C1F0023A4080134A400CE589C
:10291000EE5004339C42FAD103232D1909191A40B1
:1029200005D00023CC5CEC5401339A42FAD170BD3F
:102930000500002AF5D1FAE70500F2E71A00F8E7EA
:1029400070B588420BD98B18984208D2991A531E39
:10295000002A03D0CA5CC254013BFBD270BD0F2ACF
:1029600009D80500002AF9D00023CC5CEC540133CF
:102970009A42FAD1F2E70C0004430B00A40726D1D7
:1029800015000400103D2D0901352D0149191E685F
:1029900026605E6866609E68A660DE681033E6604A
:1029A00010349942F3D10F2445191440032C10D947
:1029B0000023043CA4080134A400CE58EE50043394
:1029C0009C42FAD103232D1909191A40CAE70500C0
:1029D000CAE72200C6E7C0467047C0467047C046F7
:1029E000F0B556464D4644465F46F0B4804685B045
:1029F0000E1E914600D1CBE03700083FFFF7ECFFF9
:102A00007A684D46032314000B35BA469C43162DB5
:102A10004AD810231025A9454AD89C427BDAD349CD
:102A2000381989680190884200D1ECE040680100C3
:102A300002900120039008000121884301998446F7
:102A40008B46DC44614601204968014200D17CE0AC
:102A50000121114231D049464046FFF72BFC814607
:102A6000002800D19CE1012302007968083A9943CB
:102A70007F18BA4200D13CE1221F242A00D929E163
:102A80000300132A00D90BE1320011681960516864
:102A9000596092689A6031004046FFF7F1F840466D
:102AA000FFF79CFF484649E004339D432B1EB2DAF2
:102AB0000C2342460020136040E03A68BA1A93465D
:102AC00059460322496891430A00A21801929A428A
:102AD000C1DB5B465A465F469268DB680837D360C5
:102AE0009A60221F242A00D910E13B00132A09D939
:102AF0005B46316899607168D9601B2A00D921E171
:102B0000103308363268DA461A607268019C5A60DF
:102B1000B2683E009A60631B0F2B24D853460121F4
:102B200052465B680B402343536022005244536873
:102B3000194351604046FFF751FF300005B03CBCDF
:102B400090469946A246AB46F0BD032102988C46BA
:102B50008843011999421FDB019A0C00D3689268DF
:102B6000D3609A60D7E75246504651190122406817
:102B7000104005435046456018001043CB1848608C
:102B80005868083102435A604046FFF779F8D1E7A8
:102B90001100FFF78FFBD1E70120104200D05AE768
:102BA00060463A68BA1A934652688243891802917D
:102BB000994200DA89E7019A5F46D368926808373C
:102BC000D3609A605B465A46DB689268D3609A602D
:102BD000221F242A00D991E03B00132A09D95B4621
:102BE000316899607168D9601B2A00D996E010336A
:102BF00008363268029C1A607268DA465A60B26817
:102C00003E009A6087E70320019984464968814322
:102C1000280009191030019081424BDAD20700D503
:102C200019E760463A68BA1A934652688243019897
:102C300051180291884200DD47E75B465A465F46DD
:102C40009268DB680837D3609A60221F242A00D973
:102C500097E03B00132A09D95B4631689960716897
:102C6000D9601B2A00D991E01033083632681A6007
:102C700072685A60B2689A605B4659193B4B40468D
:102C80009960029B5A1B01231A434A605A465268B4
:102C900013401D435B465D60FFF7A0FE38004DE723
:102CA00031680160716841601B2A17D8320008330F
:102CB0000832EAE62D4B7A199A600123491B194321
:102CC00051607A68404613401D437D60FFF786FEE1
:102CD000300033E73100FFF733FEDCE6B168030074
:102CE0008160F168C160242A22D032001033103292
:102CF000CBE6536803229343E4180CE73100380015
:102D0000FFF71EFE3E00029CDA4604E73100380061
:102D1000FFF716FE3E00019CDA46FCE65B46B16812
:102D20001961F1685961242A16D01833103660E70A
:102D300032690300026101003200706918331832F1
:102D40004861A2E65B46B1681961F1685961242ABD
:102D50000ED018331036D5E65B4632699A615A4672
:102D600071692033D161183643E7C04698050020C9
:102D70005B4632699A615A4671692033D1611836CF
:102D8000C0E631003800FFF7DBFD75E75B46B16850
:102D90001961F1685961242A07D01833103665E7A4
:102DA0004046FFF71BFE0020C8E65B4632699A6189
:102DB0005A4671692033D161183657E7002370B540
:102DC000064C05000800236000F062FC431C00D0A4
:102DD00070BD2368002BFBD02B60F9E70C0A0020A4
:102DE00070B50C000E25495F00F020FA002803DBC7
:102DF000236D1B18236570BDA289024B1340A3816C
:102E0000F9E7C046FFEFFFFFF8B516001F000C23DF
:102E1000CA5E05000C00D30507D50E23C95E00224B
:102E2000022300F0EFF90C23E25E054B280013406B
:102E3000A38132000E23E15E3B0000F0E7F8F8BD0D
:102E4000FFEFFFFF70B50C000E25495F00F0DAF9C7
:102E5000431C06D08022A38952011343A38120651D
:102E600070BDA289014B1340A381F9E7FFEFFFFF7B
:102E700010B50E23C95E00F047F910BD10B58307E9
:102E800027D00378002B26D00300032102E01A7814
:102E9000002A1CD001330B42F9D119680F4A104C9B
:102EA0008A188A4322420FD1043319680B4A8A18C0
:102EB0008A43224208D104331968084A8A188A438F
:102EC0002242F1D000E001331A78002AFBD1181A0F
:102ED00010BD0300E1E70020FAE7C046FFFEFEFE5A
:102EE00080808080F8B506000F001400002802D012
:102EF000836B002B4DD0A369A3600C23E25E91B2DB
:102F00000B073BD52369002B38D08020FF2580019B
:102F10003D40014215D022686169D31A8B421BDA09
:102F20000133A1680139A160511C216017706269E9
:102F30009A421AD0A389DB0701D50A2D15D02800A3
:102F4000F8BD0243616EA281134A0A40626661695C
:102F50002268D31A8B42E3DB21003000FEF728FD04
:102F6000002808D122680123DBE721003000FEF7AA
:102F70001FFD0028E3D001256D42E0E7210030006D
:102F8000FEF772FB0028F6D10C23E25E236991B2B2
:102F9000BBE7FEF7A3FDAEE7FFDFFFFF70B51D0047
:102FA000114B84B01B6804005B6B00290ED0002B12
:102FB00016D0E0201E582B002000B047431C03D140
:102FC00000232B608A33236004B070BD002B09D02E
:102FD000E02201A99E5820002B000022B047EDE717
:102FE000024BE6E7014BF3E7280400202C04002005
:102FF000002904D0FF2A04D801200A70704700205D
:10300000FCE78A23036001204042F7E770B5050022
:10301000080011000022064C22601A00FDF770F92A
:10302000431C00D070BD2368002BFBD02B60F9E758
:103030000C0A0020F8B544465F4656464D469B466E
:103040002F4BF0B41C68A4235B000500E0580E0071
:10305000904600284BD043681F2B0DDC5C1C002DD4
:1030600021D102339B0044601E5000203CBC90469E
:103070009946A246AB46F8BD224B002B3CD0C82057
:10308000400000E000BF002836D0A42200235200F8
:10309000A15843600160A0504032835004328350F5
:1030A0000124002DDDD09A009146814442468821BA
:1030B0004F467A50C4225200904680444246873997
:1030C000994012688A460A43944642466146116016
:1030D000842249465F4652008F50022DC1D1020022
:1030E00055468D32FF3211680D431560B9E7200057
:1030F0004D30FF30E050AEE701204042B6E7C04619
:10310000E436000000000000002370B5064C050006
:103110000800236000F094FA431C00D070BD2368BF
:10312000002BFBD02B60F9E70C0A002070B50500DE
:103130000C1E08D0002802D0836B002B31D00C224B
:10314000A35E002B01D1002070BD21002800FEF7F6
:1031500087FBE36A0600002B04D0E169280098474A
:10316000002821DBA3891B0621D4216B002908D06C
:1031700023004033994202D02800FEF781FD00234E
:103180002363616C002904D02800FEF779FD002339
:103190006364FEF7ABFC0023A381FEF7A9FC3000BB
:1031A000D2E7FEF79BFCCAE701267642DAE72169FF
:1031B0002800FEF765FDD8E7002370B5074C050031
:1031C00008001100236000F043FA431C00D070BDDA
:1031D0002368002BFBD02B60F9E7C0460C0A0020C7
:1031E000002370B5064C05000800236000F038FA93
:1031F000431C00D070BD2368002BFBD02B60F9E787
:103200000C0A002070B50500080011000022064CD1
:1032100022601A0000F02CFA431C00D070BD236815
:10322000002BFBD02B60F9E70C0A002070B50500DD
:10323000080011000022064C22601A0000F020FA5B
:10324000431C00D070BD2368002BFBD02B60F9E736
:103250000C0A002003460B437FD4002243088B4214
:1032600074D303098B425FD3030A8B4244D3030B0D
:103270008B4228D3030C8B420DD3FF22090212BAD2
:10328000030C8B4202D31212090265D0030B8B424E
:1032900019D300E0090AC30B8B4201D3CB03C01A38
:1032A0005241830B8B4201D38B03C01A5241430B13
:1032B0008B4201D34B03C01A5241030B8B4201D303
:1032C0000B03C01A5241C30A8B4201D3CB02C01A6E
:1032D0005241830A8B4201D38B02C01A5241430AE6
:1032E0008B4201D34B02C01A5241030A8B4201D3D5
:1032F0000B02C01A5241CDD2C3098B4201D3CB017C
:10330000C01A524183098B4201D38B01C01A52412A
:1033100043098B4201D34B01C01A524103098B422E
:1033200001D30B01C01A5241C3088B4201D3CB0019
:10333000C01A524183088B4201D38B00C01A5241FC
:1033400043088B4201D34B00C01A5241411A00D2AC
:1033500001465241104670475DE0CA0F00D0494215
:10336000031000D34042534000229C4603098B4285
:103370002DD3030A8B4212D3FC22890112BA030A0D
:103380008B420CD3890192118B4208D3890192118F
:103390008B4204D389013AD0921100E08909C30914
:1033A0008B4201D3CB01C01A524183098B4201D316
:1033B0008B01C01A524143098B4201D34B01C01A01
:1033C000524103098B4201D30B01C01A5241C30879
:1033D0008B4201D3CB00C01A524183088B4201D3E8
:1033E0008B00C01A5241D9D243088B4201D34B0003
:1033F000C01A5241411A00D20146634652415B1045
:10340000104601D34042002B00D549427047634625
:103410005B1000D3404201B5002000F005F802BD6A
:103420000029F8D016E770477047C046002B11D12D
:10343000002A0FD1002900D1002802D00021C94361
:10344000081C07B4024802A14018029003BDC04600
:10345000D9FFFFFF03B4684601B5029800F006F8F3
:10346000019B9E4602B00CBC7047C046F0B54D466D
:10347000564644465F46F0B4924683B004000D00C1
:1034800099468B422FD82CD04946504600F0AEF8D2
:1034900029000600200000F0A9F8331A9846203BC6
:1034A0009B4600D574E053465A4693401F0053464E
:1034B000424693401E00AF4229D826D05B46A41B4B
:1034C000BD41002B00DA79E0002200230092019335
:1034D00001235A46934001930123424693400093AF
:1034E00019E08242D0D900220023009201930C9B64
:1034F000002B01D01C605D600098019903B03CBCBA
:1035000090469946A246AB46F0BDA342D6D90022CA
:103510000023009201934346002BE8D0FB0772087A
:103520001A4346467B080EE0AB4201D1A2420CD8BA
:10353000A41A9D41012024196D410021013E241847
:103540004D41002E06D0AB42EED9013E24196D410B
:10355000002EF8D15B460098019900196941002BB3
:1035600022DB2B005A46D3402A004446E2401C008E
:103570005B461500002B2CDB26009E403300260006
:103580004746BE403200801A994100900191AEE753
:10359000424620239B1A5246DA40414613004A46CF
:1035A0008A4017001F4382E7424620239B1A2A00C5
:1035B00046469A402300F3401343D5E74246202372
:1035C00000219B1A0022009101920122DA4001920F
:1035D00082E74246202326009B1ADE402F00B44695
:1035E000974066463B003343C9E7C04610B5002903
:1035F00003D100F007F8203002E0081C00F002F8C8
:1036000010BDC0461C2101231B04984201D3000CAD
:1036100010391B0A984201D3000A08391B09984245
:1036200001D30009043902A2105C40187047C0465B
:10363000040302020101010100000000000000007B
:1036400058220120014B40421A6070470C0A0020AA
:1036500058220120014B40421A6070470C0A00209A
:103660005822024B00201A607047C0460C0A002006
:1036700058220120014B40421A6070470C0A00207A
:1036800058220120014B40421A6070470C0A00206A
:10369000044A1368002B03D01818106018007047F4
:1036A000014BF9E7080A0020100A0020FEE7C04697
:1036B000F8B5C046F8BC08BC9E467047F8B5C04691
:1036C000F8BC08BC9E4670474E6F727761792068DF
:1036D000617320256420636F756E746965732E0AAB
:1036E0000D000000000000203A0F0000F80F00005D
:1036F000F80F0000480F0000F80F0000F80F00005E
:10370000F80F0000F80F0000F80F0000F80F00009D
:10371000800D00003E0D0000F80F0000240900009D
:10372000460D0000F80F0000AE0B00001A0D00005F
:103730001A0D00001A0D00001A0D00001A0D0000ED
:103740001A0D00001A0D00001A0D00001A0D0000DD
:10375000F80F0000F80F0000F80F0000F80F00004D
:10376000F80F0000F80F0000F80F0000F80F00003D
:10377000F80F0000F80F0000BA0B0000F80F00006F
:10378000F80F0000F80F0000F80F0000F80F00001D
:10379000F80F0000F80F0000F80F0000F80F00000D
:1037A000F80F00005E0C0000F80F0000F80F00009A
:1037B000F80F0000F80F0000F80F0000640E000082
:1037C000F80F0000F80F0000C00E0000F80F000016
:1037D000F80F0000F80F0000F80F0000F80F0000CD
:1037E000F80F0000F80F0000F80F0000F80F0000BD
:1037F000F80F0000140F0000EC0F0000F80F00009D
:10380000F80F0000F80F0000AA0F0000EC0F0000F6
:10381000F80F0000F80F0000B60F0000F80F0000CE
:10382000C80F0000940D0000300900005A0E00007F
:10383000F80F0000A00D0000F80F0000DE0D0000E2
:10384000F80F0000F80F0000540F00003030303047
:103850003030303030303030303030303031323362
:10386000343536373839414243444546000000007C
:1038700030313233343536373839616263646566E6
:1038800000000000286E756C6C29000020202020AC
:103890002020202020202020202020204300000065
:1038A000504F5349580000002E00000000202020F7
:1038B00020202020202028282828282020202020E0
:1038C00020202020202020202020202020881010B0
:1038D000101010101010101010101010100404040C
:1038E00004040404040404101010101010104141CA
:1038F00041414141010101010101010101010101B8
:1039000001010101010101011010101010104242CB
:103910004242424202020202020202020202020287
:103920000202020202020202101010102000000027
:103930000000000000000000000000000000000087
:103940000000000000000000000000000000000077
:103950000000000000000000000000000000000067
:103960000000000000000000000000000000000057
:103970000000000000000000000000000000000047
:103980000000000000000000000000000000000037
:103990000000000000000000000000000000000027
:1039A0000000000000000000000000000000000017
:0439B0000000000013
:0839B4006CC7FF7F0100000059
:1039BC0000000000EC02002054030020BC03002097
:1039CC0000000000000000000000000000000000EB
:1039DC0000000000000000000000000000000000DB
:1039EC0000000000000000000000000000000000CB
:1039FC0000000000000000000000000000000000BB
:103A0C0000000000000000000000000000000000AA
:103A1C00000000000000000000000000000000009A
:103A2C00000000000000000000000000000000008A
:103A3C00000000000000000000000000000000007A
:103A4C00000000000000000000000000000000006A
:103A5C000000000000000000010000000000000059
:103A6C000E33CDAB34126DE6ECDE05000B0000001E
:103A7C00000000000000000000000000000000003A
:103A8C00000000000000000000000000000000002A
:103A9C00000000000000000000000000000000001A
:103AAC00000000000000000000000000000000000A
:103DDC000000000000000000000000204300000074
:103DEC0000000000000000000000000000000000C7
:103DFC000000000000000000000000004300000074
:103E0C0000000000000000000000000000000000A6
:103E1C000000000000000000000000004300000053
:103E2C000000000000000000000000000000000086
:103E3C000000000000000000000000004300000033
:103E4C000000000000000000000000000000000066
:103E5C000000000000000000000000004300000013
:103E6C000000000000000000000000000000000046
:103E7C0000000000000000000000000043000000F3
:103E8C000000000000000000000000000000000026
:103E9C0000000000000000000000000043000000D3
:103EAC000000000000000000000000000000000006
:103EBC00000000000000000000000000F12F0000D6
:103ECC000928000000000000AC380000A8380000F1
:103EDC006C3800006C3800006C3800006C38000046
:103EEC006C3800006C3800006C3800006C38000036
:103EFC006C380000FFFFFFFFFFFFFFFFFFFFFFFF1E
:103F0C00FFFF00000100415343494900000000003D
:103F1C000000000000000000000000000000000095
:103F2C00000000000000415343494900000000001C
:103F3C000000000000000000000000000000000075
:103F4C000000000000000000000000000000000065
:103F5C009805002098050020A0050020A005002051
:103F6C00A8050020A8050020B0050020B005002001
:103F7C00B8050020B8050020C0050020C0050020B1
:103F8C00C8050020C8050020D0050020D005002061
:103F9C00D8050020D8050020E0050020E005002011
:103FAC00E8050020E8050020F0050020F0050020C1
:103FBC00F8050020F805002000060020000600206F
:103FCC00080600200806002010060020100600201D
:103FDC0018060020180600202006002020060020CD
:103FEC00280600202806002030060020300600207D
:103FFC00380600203806002040060020400600202D
:10400C0048060020480600205006002050060020DC
:10401C00580600205806002060060020600600208C
:10402C00680600206806002070060020700600203C
:10403C0078060020780600208006002080060020EC
:10404C00880600208806002090060020900600209C
:10405C009806002098060020A0060020A00600204C
:10406C00A8060020A8060020B0060020B0060020FC
:10407C00B8060020B8060020C0060020C0060020AC
:10408C00C8060020C8060020D0060020D00600205C
:10409C00D8060020D8060020E0060020E00600200C
:1040AC00E8060020E8060020F0060020F0060020BC
:1040BC00F8060020F806002000070020000700206A
:1040CC000807002008070020100700201007002018
:1040DC0018070020180700202007002020070020C8
:1040EC002807002028070020300700203007002078
:1040FC003807002038070020400700204007002028
:10410C0048070020480700205007002050070020D7
:10411C005807002058070020600700206007002087
:10412C006807002068070020700700207007002037
:10413C0078070020780700208007002080070020E7
:10414C008807002088070020900700209007002097
:10415C009807002098070020A0070020A007002047
:10416C00A8070020A8070020B0070020B0070020F7
:10417C00B8070020B8070020C0070020C0070020A7
:10418C00C8070020C8070020D0070020D007002057
:10419C00D8070020D8070020E0070020E007002007
:1041AC00E8070020E8070020F0070020F0070020B7
:1041BC00F8070020F8070020000800200008002065
:1041CC000808002008080020100800201008002013
:1041DC0018080020180800202008002020080020C3
:1041EC002808002028080020300800203008002073
:1041FC003808002038080020400800204008002023
:10420C0048080020480800205008002050080020D2
:10421C005808002058080020600800206008002082
:10422C006808002068080020700800207008002032
:10423C0078080020780800208008002080080020E2
:10424C008808002088080020900800209008002092
:10425C009808002098080020A0080020A008002042
:10426C00A8080020A8080020B0080020B0080020F2
:10427C00B8080020B8080020C0080020C0080020A2
:10428C00C8080020C8080020D0080020D008002052
:10429C00D8080020D8080020E0080020E008002002
:1042AC00E8080020E8080020F0080020F0080020B2
:1042BC00F8080020F8080020000900200009002060
:1042CC00080900200809002010090020100900200E
:1042DC0018090020180900202009002020090020BE
:1042EC00280900202809002030090020300900206E
:1042FC00380900203809002040090020400900201E
:10430C0048090020480900205009002050090020CD
:10431C00580900205809002060090020600900207D
:10432C00680900206809002070090020700900202D
:10433C0078090020780900208009002080090020DD
:10434C00880900208809002090090020900900208D
:10435C0000000200FFFFFFFF3D170000E900000016
:08436C00C10000000000000088
:04000003000005F5FF
:00000001FF
